{
  "_format": "hh-sol-artifact-1",
  "contractName": "ERC20",
  "sourceName": "contracts/ERC20.sol",
  "abi": [
    {
      "inputs": [],
      "stateMutability": "nonpayable",
      "type": "constructor"
    },
    {
      "anonymous": false,
      "inputs": [
        {
          "indexed": true,
          "internalType": "address",
          "name": "owner",
          "type": "address"
        },
        {
          "indexed": true,
          "internalType": "address",
          "name": "spender",
          "type": "address"
        },
        {
          "indexed": false,
          "internalType": "uint256",
          "name": "value",
          "type": "uint256"
        }
      ],
      "name": "Approval",
      "type": "event"
    },
    {
      "anonymous": false,
      "inputs": [
        {
          "indexed": true,
          "internalType": "address",
          "name": "from",
          "type": "address"
        },
        {
          "indexed": true,
          "internalType": "address",
          "name": "to",
          "type": "address"
        },
        {
          "indexed": false,
          "internalType": "uint256",
          "name": "value",
          "type": "uint256"
        }
      ],
      "name": "Transfer",
      "type": "event"
    },
    {
      "inputs": [
        {
          "internalType": "address",
          "name": "allow_address",
          "type": "address"
        },
        {
          "internalType": "address",
          "name": "approve_address",
          "type": "address"
        }
      ],
      "name": "allowance",
      "outputs": [
        {
          "internalType": "uint256",
          "name": "remain_amount",
          "type": "uint256"
        }
      ],
      "stateMutability": "view",
      "type": "function"
    },
    {
      "inputs": [
        {
          "internalType": "address",
          "name": "approve_address",
          "type": "address"
        },
        {
          "internalType": "uint256",
          "name": "amount",
          "type": "uint256"
        }
      ],
      "name": "approve",
      "outputs": [
        {
          "internalType": "bool",
          "name": "success",
          "type": "bool"
        }
      ],
      "stateMutability": "nonpayable",
      "type": "function"
    },
    {
      "inputs": [
        {
          "internalType": "address",
          "name": "your_address",
          "type": "address"
        }
      ],
      "name": "balanceOf",
      "outputs": [
        {
          "internalType": "uint256",
          "name": "balance",
          "type": "uint256"
        }
      ],
      "stateMutability": "view",
      "type": "function"
    },
    {
      "inputs": [],
      "name": "totalSupply",
      "outputs": [
        {
          "internalType": "uint256",
          "name": "",
          "type": "uint256"
        }
      ],
      "stateMutability": "view",
      "type": "function"
    },
    {
      "inputs": [
        {
          "internalType": "address",
          "name": "to",
          "type": "address"
        },
        {
          "internalType": "uint256",
          "name": "amount",
          "type": "uint256"
        }
      ],
      "name": "transfer",
      "outputs": [
        {
          "internalType": "bool",
          "name": "success",
          "type": "bool"
        }
      ],
      "stateMutability": "nonpayable",
      "type": "function"
    },
    {
      "inputs": [
        {
          "internalType": "address",
          "name": "from",
          "type": "address"
        },
        {
          "internalType": "address",
          "name": "to",
          "type": "address"
        },
        {
          "internalType": "uint256",
          "name": "amount",
          "type": "uint256"
        }
      ],
      "name": "transferFrom",
      "outputs": [
        {
          "internalType": "bool",
          "name": "success",
          "type": "bool"
        }
      ],
      "stateMutability": "nonpayable",
      "type": "function"
    }
  ],
  "bytecode": "0x608060405234801561001057600080fd5b50336000908152600160205260408120612710908190559055610421806100386000396000f3fe608060405234801561001057600080fd5b50600436106100625760003560e01c8063095ea7b31461006757806318160ddd1461008f57806323b872dd146100a157806370a08231146100b4578063a9059cbb146100dd578063dd62ed3e146100f0575b600080fd5b61007a6100753660046102fb565b610129565b60405190151581526020015b60405180910390f35b6000545b604051908152602001610086565b61007a6100af366004610325565b610196565b6100936100c2366004610361565b6001600160a01b031660009081526001602052604090205490565b61007a6100eb3660046102fb565b6101fb565b6100936100fe36600461037c565b6001600160a01b03918216600090815260026020908152604080832093909416825291909152205490565b3360008181526002602090815260408083206001600160a01b038716808552925280832085905551919290917f8c5be1e5ebec7d5bd14f71427d1e84f3dd0314c0f7b2291e5b200ac8c7c3b925906101849086815260200190565b60405180910390a35060015b92915050565b6001600160a01b03831660009081526002602090815260408083203384529091528120546101c4908361020f565b6001600160a01b03851660009081526002602090815260408083203384529091529020556101f384848461021b565b949350505050565b600061020833848461021b565b9392505050565b600061020882846103c5565b6001600160a01b03831660009081526001602052604081205461023e908361020f565b6001600160a01b03808616600090815260016020526040808220939093559085168152205461026d90836102d3565b6001600160a01b0380851660008181526001602052604090819020939093559151908616907fddf252ad1be2c89b69c2b068fc378daa952ba7f163c4a11628f55a4df523b3ef906102c19086815260200190565b60405180910390a35060019392505050565b600061020882846103d8565b80356001600160a01b03811681146102f657600080fd5b919050565b6000806040838503121561030e57600080fd5b610317836102df565b946020939093013593505050565b60008060006060848603121561033a57600080fd5b610343846102df565b9250610351602085016102df565b9150604084013590509250925092565b60006020828403121561037357600080fd5b610208826102df565b6000806040838503121561038f57600080fd5b610398836102df565b91506103a6602084016102df565b90509250929050565b634e487b7160e01b600052601160045260246000fd5b81810381811115610190576101906103af565b80820180821115610190576101906103af56fea2646970667358221220ea9d761f33c4e80115f5b474130d21b8df5fc792d151d2e2ac47e862627d218964736f6c63430008110033",
  "linkReferences": {},
  "deployedLinkReferences": {}
}