{
  "_format": "hh-sol-artifact-1",
  "contractName": "BankContract",
  "sourceName": "contracts/BankContract.sol",
  "abi": [
    {
      "inputs": [
        {
          "internalType": "address",
          "name": "token_address",
          "type": "address"
        },
        {
          "internalType": "uint256",
          "name": "amount",
          "type": "uint256"
        }
      ],
      "name": "deposit",
      "outputs": [],
      "stateMutability": "nonpayable",
      "type": "function"
    },
    {
      "inputs": [
        {
          "internalType": "address",
          "name": "token_address",
          "type": "address"
        }
      ],
      "name": "getBalance",
      "outputs": [
        {
          "internalType": "uint256",
          "name": "balance",
          "type": "uint256"
        }
      ],
      "stateMutability": "view",
      "type": "function"
    },
    {
      "inputs": [
        {
          "internalType": "address",
          "name": "token_address",
          "type": "address"
        },
        {
          "internalType": "uint256",
          "name": "amount",
          "type": "uint256"
        }
      ],
      "name": "withdraw",
      "outputs": [],
      "stateMutability": "nonpayable",
      "type": "function"
    }
  ],
  "bytecode": "0x608060405234801561001057600080fd5b50610522806100206000396000f3fe608060405234801561001057600080fd5b50600436106100415760003560e01c806347e7ef2414610046578063f3fef3a31461005b578063f8b2cb4f1461006e575b600080fd5b61005961005436600461043c565b6100b4565b005b61005961006936600461043c565b610259565b6100a261007c366004610466565b336000908152602081815260408083206001600160a01b03949094168352929052205490565b60405190815260200160405180910390f35b600081116101145760405162461bcd60e51b815260206004820152602260248201527f4465706f73697420616d6f756e74206d7573742067726561746572207468616e604482015261020360f41b60648201526084015b60405180910390fd5b6001600160a01b03821661016a5760405162461bcd60e51b815260206004820152601a60248201527f43616e27742073656e6420746f6b656e20746f20307830302e2e000000000000604482015260640161010b565b6040516323b872dd60e01b8152336004820152306024820152604481018290526001600160a01b038316906323b872dd906064016020604051808303816000875af11580156101bd573d6000803e3d6000fd5b505050506040513d601f19601f820116820180604052508101906101e19190610488565b61021f5760405162461bcd60e51b815260206004820152600f60248201526e151c985b9cd9995c8819985a5b1959608a1b604482015260640161010b565b336000908152602081815260408083206001600160a01b0386168452909152812080548392906102509084906104c0565b90915550505050565b600081116102b55760405162461bcd60e51b815260206004820152602360248201527f576974686472617720616d6f756e74206d75737420677265617465722074686160448201526206e20360ec1b606482015260840161010b565b336000908152602081815260408083206001600160a01b03861684529091529020548111156103375760405162461bcd60e51b815260206004820152602860248201527f596f7520646f6e2774206861766520656e6f75676820616d6f756e7420746f20604482015267776974686472617760c01b606482015260840161010b565b336000908152602081815260408083206001600160a01b0386168452909152812080548392906103689084906104d9565b909155505060405163a9059cbb60e01b8152336004820152602481018290526001600160a01b0383169063a9059cbb906044016020604051808303816000875af11580156103ba573d6000803e3d6000fd5b505050506040513d601f19601f820116820180604052508101906103de9190610488565b61041c5760405162461bcd60e51b815260206004820152600f60248201526e151c985b9cd9995c8819985a5b1959608a1b604482015260640161010b565b5050565b80356001600160a01b038116811461043757600080fd5b919050565b6000806040838503121561044f57600080fd5b61045883610420565b946020939093013593505050565b60006020828403121561047857600080fd5b61048182610420565b9392505050565b60006020828403121561049a57600080fd5b8151801515811461048157600080fd5b634e487b7160e01b600052601160045260246000fd5b808201808211156104d3576104d36104aa565b92915050565b818103818111156104d3576104d36104aa56fea264697066735822122022fc9e5d29de0d000b0b03986c8c8a62a0d4714ad9ffd812fad22d4b64271b8564736f6c63430008110033",
  "linkReferences": {},
  "deployedLinkReferences": {}
}